:020000040000FA
:100000008316860183121128A00B04287F30A000DC
:10001000A10B0428BA30A100A20B04280730A200CB
:1000200008006E30A7000030A6003230A80014305F
:10003000A4002D30A3001530A5007F30A000BA30F9
:10004000A1000730A20006162608270203192D2852
:100050002A2024280614A60A08000610861425085B
:10006000230203193B2835202D28061504200611EC
:100070000420A50A08008610861526082802031900
:100080004328A6033B28861106121C30A200042038
:02009000112835
:040092000034003402
:00000001FF
